{
  "_format": "hh-sol-artifact-1",
  "contractName": "ThumbsUpPortal",
  "sourceName": "contracts/ThumbsUpPortal.sol",
  "abi": [
    {
      "inputs": [],
      "stateMutability": "nonpayable",
      "type": "constructor"
    },
    {
      "anonymous": false,
      "inputs": [
        {
          "indexed": true,
          "internalType": "address",
          "name": "from",
          "type": "address"
        },
        {
          "indexed": false,
          "internalType": "uint256",
          "name": "timestamp",
          "type": "uint256"
        },
        {
          "indexed": false,
          "internalType": "string",
          "name": "message",
          "type": "string"
        }
      ],
      "name": "NewThumbsUp",
      "type": "event"
    },
    {
      "inputs": [],
      "name": "getAllThumbsUps",
      "outputs": [
        {
          "components": [
            {
              "internalType": "address",
              "name": "thumbsUper",
              "type": "address"
            },
            {
              "internalType": "string",
              "name": "message",
              "type": "string"
            },
            {
              "internalType": "uint256",
              "name": "timestamp",
              "type": "uint256"
            }
          ],
          "internalType": "struct ThumbsUpPortal.ThumbsUp[]",
          "name": "",
          "type": "tuple[]"
        }
      ],
      "stateMutability": "view",
      "type": "function"
    },
    {
      "inputs": [],
      "name": "getTotalThumbsUps",
      "outputs": [
        {
          "internalType": "uint256",
          "name": "",
          "type": "uint256"
        }
      ],
      "stateMutability": "view",
      "type": "function"
    },
    {
      "inputs": [
        {
          "internalType": "string",
          "name": "_message",
          "type": "string"
        }
      ],
      "name": "thumbsUp",
      "outputs": [],
      "stateMutability": "nonpayable",
      "type": "function"
    }
  ],
  "bytecode": "0x60806040523480156200001157600080fd5b506200005d6040518060400160405280601881526020017f596f206920616d206120736d61727420636f6e747261637400000000000000008152506200006360201b620003951760201c565b620001f7565b62000103816040516024016200007a919062000170565b6040516020818303038152906040527f41304fac000000000000000000000000000000000000000000000000000000007bffffffffffffffffffffffffffffffffffffffffffffffffffffffff19166020820180517bffffffffffffffffffffffffffffffffffffffffffffffffffffffff83818316178352505050506200010660201b60201c565b50565b60008151905060006a636f6e736f6c652e6c6f679050602083016000808483855afa5050505050565b60006200013c8262000194565b6200014881856200019f565b93506200015a818560208601620001b0565b6200016581620001e6565b840191505092915050565b600060208201905081810360008301526200018c81846200012f565b905092915050565b600081519050919050565b600082825260208201905092915050565b60005b83811015620001d0578082015181840152602081019050620001b3565b83811115620001e0576000848401525b50505050565b6000601f19601f8301169050919050565b610c6080620002076000396000f3fe608060405234801561001057600080fd5b50600436106100415760003560e01c806331070f3f14610046578063d5132a5514610064578063f3900d4b14610082575b600080fd5b61004e61009e565b60405161005b919061091e565b60405180910390f35b61006c6100e9565b6040516100799190610865565b60405180910390f35b61009c6004803603810190610097919061069d565b61023a565b005b60006100e16040518060400160405280602081526020017f54686520546f74616c205468756d6273557020736f206661722069732025732181525060005461042e565b600054905090565b60606001805480602002602001604051908101604052809291908181526020016000905b8282101561023157838290600052602060002090600302016040518060600160405290816000820160009054906101000a900473ffffffffffffffffffffffffffffffffffffffff1673ffffffffffffffffffffffffffffffffffffffff1673ffffffffffffffffffffffffffffffffffffffff16815260200160018201805461019690610af9565b80601f01602080910402602001604051908101604052809291908181526020018280546101c290610af9565b801561020f5780601f106101e45761010080835404028352916020019161020f565b820191906000526020600020905b8154815290600101906020018083116101f257829003601f168201915b505050505081526020016002820154815250508152602001906001019061010d565b50505050905090565b600160008082825461024c9190610a25565b92505081905550610276604051806060016040528060308152602001610bfb6030913933836104ca565b600160405180606001604052803373ffffffffffffffffffffffffffffffffffffffff16815260200183815260200142815250908060018154018082558091505060019003906000526020600020906003020160009091909190915060008201518160000160006101000a81548173ffffffffffffffffffffffffffffffffffffffff021916908373ffffffffffffffffffffffffffffffffffffffff1602179055506020820151816001019080519060200190610335929190610592565b506040820151816002015550503373ffffffffffffffffffffffffffffffffffffffff167f5509435d0b7963d9266d4d23b4dacda8d65a1f000a2fb7ef67daad9e84198475428360405161038a929190610939565b60405180910390a250565b61042b816040516024016103a99190610887565b6040516020818303038152906040527f41304fac000000000000000000000000000000000000000000000000000000007bffffffffffffffffffffffffffffffffffffffffffffffffffffffff19166020820180517bffffffffffffffffffffffffffffffffffffffffffffffffffffffff8381831617835250505050610569565b50565b6104c682826040516024016104449291906108ee565b6040516020818303038152906040527f9710a9d0000000000000000000000000000000000000000000000000000000007bffffffffffffffffffffffffffffffffffffffffffffffffffffffff19166020820180517bffffffffffffffffffffffffffffffffffffffffffffffffffffffff8381831617835250505050610569565b5050565b6105648383836040516024016104e2939291906108a9565b6040516020818303038152906040527fe0e9ad4f000000000000000000000000000000000000000000000000000000007bffffffffffffffffffffffffffffffffffffffffffffffffffffffff19166020820180517bffffffffffffffffffffffffffffffffffffffffffffffffffffffff8381831617835250505050610569565b505050565b60008151905060006a636f6e736f6c652e6c6f679050602083016000808483855afa5050505050565b82805461059e90610af9565b90600052602060002090601f0160209004810192826105c05760008555610607565b82601f106105d957805160ff1916838001178555610607565b82800160010185558215610607579182015b828111156106065782518255916020019190600101906105eb565b5b5090506106149190610618565b5090565b5b80821115610631576000816000905550600101610619565b5090565b60006106486106438461098e565b610969565b90508281526020810184848401111561066057600080fd5b61066b848285610ab7565b509392505050565b600082601f83011261068457600080fd5b8135610694848260208601610635565b91505092915050565b6000602082840312156106af57600080fd5b600082013567ffffffffffffffff8111156106c957600080fd5b6106d584828501610673565b91505092915050565b60006106ea83836107f7565b905092915050565b6106fb81610a7b565b82525050565b61070a81610a7b565b82525050565b600061071b826109cf565b61072581856109f2565b935083602082028501610737856109bf565b8060005b85811015610773578484038952815161075485826106de565b945061075f836109e5565b925060208a0199505060018101905061073b565b50829750879550505050505092915050565b6000610790826109da565b61079a8185610a03565b93506107aa818560208601610ac6565b6107b381610be9565b840191505092915050565b60006107c9826109da565b6107d38185610a14565b93506107e3818560208601610ac6565b6107ec81610be9565b840191505092915050565b600060608301600083015161080f60008601826106f2565b50602083015184820360208601526108278282610785565b915050604083015161083c6040860182610847565b508091505092915050565b61085081610aad565b82525050565b61085f81610aad565b82525050565b6000602082019050818103600083015261087f8184610710565b905092915050565b600060208201905081810360008301526108a181846107be565b905092915050565b600060608201905081810360008301526108c381866107be565b90506108d26020830185610701565b81810360408301526108e481846107be565b9050949350505050565b6000604082019050818103600083015261090881856107be565b90506109176020830184610856565b9392505050565b60006020820190506109336000830184610856565b92915050565b600060408201905061094e6000830185610856565b818103602083015261096081846107be565b90509392505050565b6000610973610984565b905061097f8282610b2b565b919050565b6000604051905090565b600067ffffffffffffffff8211156109a9576109a8610bba565b5b6109b282610be9565b9050602081019050919050565b6000819050602082019050919050565b600081519050919050565b600081519050919050565b6000602082019050919050565b600082825260208201905092915050565b600082825260208201905092915050565b600082825260208201905092915050565b6000610a3082610aad565b9150610a3b83610aad565b9250827fffffffffffffffffffffffffffffffffffffffffffffffffffffffffffffffff03821115610a7057610a6f610b5c565b5b828201905092915050565b6000610a8682610a8d565b9050919050565b600073ffffffffffffffffffffffffffffffffffffffff82169050919050565b6000819050919050565b82818337600083830152505050565b60005b83811015610ae4578082015181840152602081019050610ac9565b83811115610af3576000848401525b50505050565b60006002820490506001821680610b1157607f821691505b60208210811415610b2557610b24610b8b565b5b50919050565b610b3482610be9565b810181811067ffffffffffffffff82111715610b5357610b52610bba565b5b80604052505050565b7f4e487b7100000000000000000000000000000000000000000000000000000000600052601160045260246000fd5b7f4e487b7100000000000000000000000000000000000000000000000000000000600052602260045260246000fd5b7f4e487b7100000000000000000000000000000000000000000000000000000000600052604160045260246000fd5b6000601f19601f830116905091905056fe2573206861732073656e742061205468756d627355702120416e64206c65667420746865206d6573736167653a202573a2646970667358221220797364daa3e37c91471031bf7f679138b353345f3bb1d96e0fbb8d7e3c7035d664736f6c63430008040033",
  "linkReferences": {},
  "deployedLinkReferences": {}
}