{
  "_format": "hh-sol-artifact-1",
  "contractName": "ThumbsUpPortal",
  "sourceName": "contracts/ThumbsUpPortal.sol",
  "abi": [
    {
      "inputs": [],
      "stateMutability": "payable",
      "type": "constructor"
    },
    {
      "anonymous": false,
      "inputs": [
        {
          "indexed": true,
          "internalType": "address",
          "name": "from",
          "type": "address"
        },
        {
          "indexed": false,
          "internalType": "uint256",
          "name": "timestamp",
          "type": "uint256"
        },
        {
          "indexed": false,
          "internalType": "string",
          "name": "message",
          "type": "string"
        }
      ],
      "name": "NewThumbsUp",
      "type": "event"
    },
    {
      "inputs": [],
      "name": "getAllThumbsUps",
      "outputs": [
        {
          "components": [
            {
              "internalType": "address",
              "name": "thumbsUper",
              "type": "address"
            },
            {
              "internalType": "string",
              "name": "message",
              "type": "string"
            },
            {
              "internalType": "uint256",
              "name": "timestamp",
              "type": "uint256"
            }
          ],
          "internalType": "struct ThumbsUpPortal.ThumbsUp[]",
          "name": "",
          "type": "tuple[]"
        }
      ],
      "stateMutability": "view",
      "type": "function"
    },
    {
      "inputs": [],
      "name": "getTotalThumbsUps",
      "outputs": [
        {
          "internalType": "uint256",
          "name": "",
          "type": "uint256"
        }
      ],
      "stateMutability": "view",
      "type": "function"
    },
    {
      "inputs": [
        {
          "internalType": "address",
          "name": "",
          "type": "address"
        }
      ],
      "name": "lastThumbsUpAt",
      "outputs": [
        {
          "internalType": "uint256",
          "name": "",
          "type": "uint256"
        }
      ],
      "stateMutability": "view",
      "type": "function"
    },
    {
      "inputs": [
        {
          "internalType": "string",
          "name": "_message",
          "type": "string"
        }
      ],
      "name": "thumbsUp",
      "outputs": [],
      "stateMutability": "nonpayable",
      "type": "function"
    }
  ],
  "bytecode": "0x60806040526200004f6040518060400160405280601981526020017f57652068617665206265656e20636f6e737472756374656421000000000000008152506200007760201b6200066b1760201c565b606444426200005f9190620001c4565b6200006b919062000261565b60018190555062000308565b62000117816040516024016200008e919062000184565b6040516020818303038152906040527f41304fac000000000000000000000000000000000000000000000000000000007bffffffffffffffffffffffffffffffffffffffffffffffffffffffff19166020820180517bffffffffffffffffffffffffffffffffffffffffffffffffffffffff83818316178352505050506200011a60201b60201c565b50565b60008151905060006a636f6e736f6c652e6c6f679050602083016000808483855afa5050505050565b60006200015082620001a8565b6200015c8185620001b3565b93506200016e8185602086016200022b565b6200017981620002f7565b840191505092915050565b60006020820190508181036000830152620001a0818462000143565b905092915050565b600081519050919050565b600082825260208201905092915050565b6000620001d18262000221565b9150620001de8362000221565b9250827fffffffffffffffffffffffffffffffffffffffffffffffffffffffffffffffff0382111562000216576200021562000299565b5b828201905092915050565b6000819050919050565b60005b838110156200024b5780820151818401526020810190506200022e565b838111156200025b576000848401525b50505050565b60006200026e8262000221565b91506200027b8362000221565b9250826200028e576200028d620002c8565b5b828206905092915050565b7f4e487b7100000000000000000000000000000000000000000000000000000000600052601160045260246000fd5b7f4e487b7100000000000000000000000000000000000000000000000000000000600052601260045260246000fd5b6000601f19601f8301169050919050565b6112b380620003186000396000f3fe608060405234801561001057600080fd5b506004361061004c5760003560e01c806331070f3f1461005157806359cdba951461006f578063d5132a551461009f578063f3900d4b146100bd575b600080fd5b6100596100d9565b6040516100669190610dff565b60405180910390f35b61008960048036038101906100849190610a24565b610124565b6040516100969190610dff565b60405180910390f35b6100a761013c565b6040516100b49190610cb6565b60405180910390f35b6100d760048036038101906100d29190610a4d565b61028d565b005b600061011c6040518060400160405280602081526020017f54686520546f74616c205468756d6273557020736f2066617220697320257321815250600054610704565b600054905090565b60036020528060005260406000206000915090505481565b60606002805480602002602001604051908101604052809291908181526020016000905b8282101561028457838290600052602060002090600302016040518060600160405290816000820160009054906101000a900473ffffffffffffffffffffffffffffffffffffffff1673ffffffffffffffffffffffffffffffffffffffff1673ffffffffffffffffffffffffffffffffffffffff1681526020016001820180546101e990610fe5565b80601f016020809104026020016040519081016040528092919081815260200182805461021590610fe5565b80156102625780601f1061023757610100808354040283529160200191610262565b820191906000526020600020905b81548152906001019060200180831161024557829003601f168201915b5050505050815260200160028201548152505081526020019060010190610160565b50505050905090565b42601e600360003373ffffffffffffffffffffffffffffffffffffffff1673ffffffffffffffffffffffffffffffffffffffff168152602001908152602001600020546102da9190610f11565b1061031a576040517f08c379a000000000000000000000000000000000000000000000000000000000815260040161031190610ddf565b60405180910390fd5b42600360003373ffffffffffffffffffffffffffffffffffffffff1673ffffffffffffffffffffffffffffffffffffffff1681526020019081526020016000208190555060016000808282546103709190610f11565b9250508190555061039a60405180606001604052806030815260200161124e6030913933836107a0565b600260405180606001604052803373ffffffffffffffffffffffffffffffffffffffff16815260200183815260200142815250908060018154018082558091505060019003906000526020600020906003020160009091909190915060008201518160000160006101000a81548173ffffffffffffffffffffffffffffffffffffffff021916908373ffffffffffffffffffffffffffffffffffffffff1602179055506020820151816001019080519060200190610459929190610904565b50604082015181600201555050606460015442446104779190610f11565b6104819190610f11565b61048b9190611048565b6001819055506104d26040518060400160405280601681526020017f52616e646f6d20232067656e6572617465643a20256400000000000000000000815250600154610704565b6032600154116106185761051b6040518060400160405280600781526020017f257320776f6e21000000000000000000000000000000000000000000000000008152503361083f565b6000655af3107a4000905047811115610569576040517f08c379a000000000000000000000000000000000000000000000000000000000815260040161056090610d9f565b60405180910390fd5b60003373ffffffffffffffffffffffffffffffffffffffff168260405161058f90610ca1565b60006040518083038185875af1925050503d80600081146105cc576040519150601f19603f3d011682016040523d82523d6000602084013e6105d1565b606091505b5050905080610615576040517f08c379a000000000000000000000000000000000000000000000000000000000815260040161060c90610dbf565b60405180910390fd5b50505b3373ffffffffffffffffffffffffffffffffffffffff167f5509435d0b7963d9266d4d23b4dacda8d65a1f000a2fb7ef67daad9e841984754283604051610660929190610e1a565b60405180910390a250565b6107018160405160240161067f9190610cd8565b6040516020818303038152906040527f41304fac000000000000000000000000000000000000000000000000000000007bffffffffffffffffffffffffffffffffffffffffffffffffffffffff19166020820180517bffffffffffffffffffffffffffffffffffffffffffffffffffffffff83818316178352505050506108db565b50565b61079c828260405160240161071a929190610d6f565b6040516020818303038152906040527f9710a9d0000000000000000000000000000000000000000000000000000000007bffffffffffffffffffffffffffffffffffffffffffffffffffffffff19166020820180517bffffffffffffffffffffffffffffffffffffffffffffffffffffffff83818316178352505050506108db565b5050565b61083a8383836040516024016107b893929190610d2a565b6040516020818303038152906040527fe0e9ad4f000000000000000000000000000000000000000000000000000000007bffffffffffffffffffffffffffffffffffffffffffffffffffffffff19166020820180517bffffffffffffffffffffffffffffffffffffffffffffffffffffffff83818316178352505050506108db565b505050565b6108d78282604051602401610855929190610cfa565b6040516020818303038152906040527f319af333000000000000000000000000000000000000000000000000000000007bffffffffffffffffffffffffffffffffffffffffffffffffffffffff19166020820180517bffffffffffffffffffffffffffffffffffffffffffffffffffffffff83818316178352505050506108db565b5050565b60008151905060006a636f6e736f6c652e6c6f679050602083016000808483855afa5050505050565b82805461091090610fe5565b90600052602060002090601f0160209004810192826109325760008555610979565b82601f1061094b57805160ff1916838001178555610979565b82800160010185558215610979579182015b8281111561097857825182559160200191906001019061095d565b5b509050610986919061098a565b5090565b5b808211156109a357600081600090555060010161098b565b5090565b60006109ba6109b584610e6f565b610e4a565b9050828152602081018484840111156109d257600080fd5b6109dd848285610fa3565b509392505050565b6000813590506109f481611236565b92915050565b600082601f830112610a0b57600080fd5b8135610a1b8482602086016109a7565b91505092915050565b600060208284031215610a3657600080fd5b6000610a44848285016109e5565b91505092915050565b600060208284031215610a5f57600080fd5b600082013567ffffffffffffffff811115610a7957600080fd5b610a85848285016109fa565b91505092915050565b6000610a9a8383610c33565b905092915050565b610aab81610f67565b82525050565b610aba81610f67565b82525050565b6000610acb82610eb0565b610ad58185610ed3565b935083602082028501610ae785610ea0565b8060005b85811015610b235784840389528151610b048582610a8e565b9450610b0f83610ec6565b925060208a01995050600181019050610aeb565b50829750879550505050505092915050565b6000610b4082610ebb565b610b4a8185610eef565b9350610b5a818560208601610fb2565b610b6381611135565b840191505092915050565b6000610b7982610ebb565b610b838185610f00565b9350610b93818560208601610fb2565b610b9c81611135565b840191505092915050565b6000610bb4603483610f00565b9150610bbf82611146565b604082019050919050565b6000610bd7602783610f00565b9150610be282611195565b604082019050919050565b6000610bfa603583610f00565b9150610c05826111e4565b604082019050919050565b6000610c1d600083610ee4565b9150610c2882611233565b600082019050919050565b6000606083016000830151610c4b6000860182610aa2565b5060208301518482036020860152610c638282610b35565b9150506040830151610c786040860182610c83565b508091505092915050565b610c8c81610f99565b82525050565b610c9b81610f99565b82525050565b6000610cac82610c10565b9150819050919050565b60006020820190508181036000830152610cd08184610ac0565b905092915050565b60006020820190508181036000830152610cf28184610b6e565b905092915050565b60006040820190508181036000830152610d148185610b6e565b9050610d236020830184610ab1565b9392505050565b60006060820190508181036000830152610d448186610b6e565b9050610d536020830185610ab1565b8181036040830152610d658184610b6e565b9050949350505050565b60006040820190508181036000830152610d898185610b6e565b9050610d986020830184610c92565b9392505050565b60006020820190508181036000830152610db881610ba7565b9050919050565b60006020820190508181036000830152610dd881610bca565b9050919050565b60006020820190508181036000830152610df881610bed565b9050919050565b6000602082019050610e146000830184610c92565b92915050565b6000604082019050610e2f6000830185610c92565b8181036020830152610e418184610b6e565b90509392505050565b6000610e54610e65565b9050610e608282611017565b919050565b6000604051905090565b600067ffffffffffffffff821115610e8a57610e89611106565b5b610e9382611135565b9050602081019050919050565b6000819050602082019050919050565b600081519050919050565b600081519050919050565b6000602082019050919050565b600082825260208201905092915050565b600081905092915050565b600082825260208201905092915050565b600082825260208201905092915050565b6000610f1c82610f99565b9150610f2783610f99565b9250827fffffffffffffffffffffffffffffffffffffffffffffffffffffffffffffffff03821115610f5c57610f5b611079565b5b828201905092915050565b6000610f7282610f79565b9050919050565b600073ffffffffffffffffffffffffffffffffffffffff82169050919050565b6000819050919050565b82818337600083830152505050565b60005b83811015610fd0578082015181840152602081019050610fb5565b83811115610fdf576000848401525b50505050565b60006002820490506001821680610ffd57607f821691505b60208210811415611011576110106110d7565b5b50919050565b61102082611135565b810181811067ffffffffffffffff8211171561103f5761103e611106565b5b80604052505050565b600061105382610f99565b915061105e83610f99565b92508261106e5761106d6110a8565b5b828206905092915050565b7f4e487b7100000000000000000000000000000000000000000000000000000000600052601160045260246000fd5b7f4e487b7100000000000000000000000000000000000000000000000000000000600052601260045260246000fd5b7f4e487b7100000000000000000000000000000000000000000000000000000000600052602260045260246000fd5b7f4e487b7100000000000000000000000000000000000000000000000000000000600052604160045260246000fd5b6000601f19601f8301169050919050565b7f547279696e6720746f207769746864726177206d6f7265206d6f6e657920746860008201527f616e2074686520636f6e7472616374206861732e000000000000000000000000602082015250565b7f4661696c656420746f207769746864726177206d6f6e65792066726f6d20636f60008201527f6e74726163742e00000000000000000000000000000000000000000000000000602082015250565b7f4d757374205761697420466f7220333073656373204265666f72652073656e6460008201527f696e6720616e6f74686572207468756d62735570210000000000000000000000602082015250565b50565b61123f81610f67565b811461124a57600080fd5b5056fe2573206861732073656e742061205468756d627355702120416e64206c65667420746865206d6573736167653a202573a26469706673582212202293f468f2eafed509d42fceec8fb9a52047b964ad08c48a74ec9be02064af0164736f6c63430008040033",
  "linkReferences": {},
  "deployedLinkReferences": {}
}